{
  "contractName": "Donation",
  "abi": [
    {
      "inputs": [],
      "payable": false,
      "stateMutability": "nonpayable",
      "type": "constructor"
    },
    {
      "constant": true,
      "inputs": [
        {
          "internalType": "uint256",
          "name": "",
          "type": "uint256"
        }
      ],
      "name": "items",
      "outputs": [
        {
          "internalType": "uint256",
          "name": "id",
          "type": "uint256"
        },
        {
          "internalType": "string",
          "name": "name",
          "type": "string"
        },
        {
          "internalType": "string",
          "name": "description",
          "type": "string"
        },
        {
          "internalType": "string",
          "name": "donateBy",
          "type": "string"
        },
        {
          "internalType": "string",
          "name": "donateOn",
          "type": "string"
        },
        {
          "internalType": "address",
          "name": "admin",
          "type": "address"
        }
      ],
      "payable": false,
      "stateMutability": "view",
      "type": "function"
    },
    {
      "constant": true,
      "inputs": [],
      "name": "itemsCount",
      "outputs": [
        {
          "internalType": "uint256",
          "name": "",
          "type": "uint256"
        }
      ],
      "payable": false,
      "stateMutability": "view",
      "type": "function"
    },
    {
      "constant": false,
      "inputs": [
        {
          "internalType": "string",
          "name": "_name",
          "type": "string"
        },
        {
          "internalType": "string",
          "name": "_description",
          "type": "string"
        },
        {
          "internalType": "string",
          "name": "_donateBy",
          "type": "string"
        },
        {
          "internalType": "string",
          "name": "_donateOn",
          "type": "string"
        }
      ],
      "name": "donate",
      "outputs": [],
      "payable": false,
      "stateMutability": "nonpayable",
      "type": "function"
    }
  ],
  "bytecode": "0x608060405234801561001057600080fd5b506100f96040518060400160405280600481526020017f466f6f64000000000000000000000000000000000000000000000000000000008152506040518060400160405280600881526020017f57657420466f6f640000000000000000000000000000000000000000000000008152506040518060400160405280600581526020017f53636f74740000000000000000000000000000000000000000000000000000008152506040518060400160405280600c81526020017f4465632032342c2032303230000000000000000000000000000000000000000081525060006100fe60201b60201c565b6102dd565b6001600081548092919060010191905055506040518060c0016040528060015481526020018681526020018581526020018481526020018381526020018273ffffffffffffffffffffffffffffffffffffffff16815250600080600154815260200190815260200160002060008201518160000155602082015181600101908051906020019061018f929190610238565b5060408201518160020190805190602001906101ac929190610238565b5060608201518160030190805190602001906101c9929190610238565b5060808201518160040190805190602001906101e6929190610238565b5060a08201518160050160006101000a81548173ffffffffffffffffffffffffffffffffffffffff021916908373ffffffffffffffffffffffffffffffffffffffff1602179055509050505050505050565b828054600181600116156101000203166002900490600052602060002090601f016020900481019282601f1061027957805160ff19168380011785556102a7565b828001600101855582156102a7579182015b828111156102a657825182559160200191906001019061028b565b5b5090506102b491906102b8565b5090565b6102da91905b808211156102d65760008160009055506001016102be565b5090565b90565b6109de806102ec6000396000f3fe608060405234801561001057600080fd5b50600436106100415760003560e01c8063bfb231d214610046578063d589db7f1461026b578063e2c03ace146104eb575b600080fd5b6100726004803603602081101561005c57600080fd5b8101908080359060200190929190505050610509565b60405180878152602001806020018060200180602001806020018673ffffffffffffffffffffffffffffffffffffffff1673ffffffffffffffffffffffffffffffffffffffff16815260200185810385528a818151815260200191508051906020019080838360005b838110156100f65780820151818401526020810190506100db565b50505050905090810190601f1680156101235780820380516001836020036101000a031916815260200191505b50858103845289818151815260200191508051906020019080838360005b8381101561015c578082015181840152602081019050610141565b50505050905090810190601f1680156101895780820380516001836020036101000a031916815260200191505b50858103835288818151815260200191508051906020019080838360005b838110156101c25780820151818401526020810190506101a7565b50505050905090810190601f1680156101ef5780820380516001836020036101000a031916815260200191505b50858103825287818151815260200191508051906020019080838360005b8381101561022857808201518184015260208101905061020d565b50505050905090810190601f1680156102555780820380516001836020036101000a031916815260200191505b509a505050505050505050505060405180910390f35b6104e96004803603608081101561028157600080fd5b810190808035906020019064010000000081111561029e57600080fd5b8201836020820111156102b057600080fd5b803590602001918460018302840111640100000000831117156102d257600080fd5b91908080601f016020809104026020016040519081016040528093929190818152602001838380828437600081840152601f19601f8201169050808301925050505050505091929192908035906020019064010000000081111561033557600080fd5b82018360208201111561034757600080fd5b8035906020019184600183028401116401000000008311171561036957600080fd5b91908080601f016020809104026020016040519081016040528093929190818152602001838380828437600081840152601f19601f820116905080830192505050505050509192919290803590602001906401000000008111156103cc57600080fd5b8201836020820111156103de57600080fd5b8035906020019184600183028401116401000000008311171561040057600080fd5b91908080601f016020809104026020016040519081016040528093929190818152602001838380828437600081840152601f19601f8201169050808301925050505050505091929192908035906020019064010000000081111561046357600080fd5b82018360208201111561047557600080fd5b8035906020019184600183028401116401000000008311171561049757600080fd5b91908080601f016020809104026020016040519081016040528093929190818152602001838380828437600081840152601f19601f8201169050808301925050505050505091929192905050506107c5565b005b6104f36108fe565b6040518082815260200191505060405180910390f35b6000602052806000526040600020600091509050806000015490806001018054600181600116156101000203166002900480601f0160208091040260200160405190810160405280929190818152602001828054600181600116156101000203166002900480156105bb5780601f10610590576101008083540402835291602001916105bb565b820191906000526020600020905b81548152906001019060200180831161059e57829003601f168201915b505050505090806002018054600181600116156101000203166002900480601f0160208091040260200160405190810160405280929190818152602001828054600181600116156101000203166002900480156106595780601f1061062e57610100808354040283529160200191610659565b820191906000526020600020905b81548152906001019060200180831161063c57829003601f168201915b505050505090806003018054600181600116156101000203166002900480601f0160208091040260200160405190810160405280929190818152602001828054600181600116156101000203166002900480156106f75780601f106106cc576101008083540402835291602001916106f7565b820191906000526020600020905b8154815290600101906020018083116106da57829003601f168201915b505050505090806004018054600181600116156101000203166002900480601f0160208091040260200160405190810160405280929190818152602001828054600181600116156101000203166002900480156107955780601f1061076a57610100808354040283529160200191610795565b820191906000526020600020905b81548152906001019060200180831161077857829003601f168201915b5050505050908060050160009054906101000a900473ffffffffffffffffffffffffffffffffffffffff16905086565b6001600081548092919060010191905055506040518060c0016040528060015481526020018581526020018481526020018381526020018281526020013373ffffffffffffffffffffffffffffffffffffffff168152506000806001548152602001908152602001600020600082015181600001556020820151816001019080519060200190610856929190610904565b506040820151816002019080519060200190610873929190610904565b506060820151816003019080519060200190610890929190610904565b5060808201518160040190805190602001906108ad929190610904565b5060a08201518160050160006101000a81548173ffffffffffffffffffffffffffffffffffffffff021916908373ffffffffffffffffffffffffffffffffffffffff16021790555090505050505050565b60015481565b828054600181600116156101000203166002900490600052602060002090601f016020900481019282601f1061094557805160ff1916838001178555610973565b82800160010185558215610973579182015b82811115610972578251825591602001919060010190610957565b5b5090506109809190610984565b5090565b6109a691905b808211156109a257600081600090555060010161098a565b5090565b9056fea265627a7a7231582024daa03b7e82945fc93af7b9400adb9ad049d9d4c7db2be835e9d307a52af06164736f6c63430005100032",
  "source": "pragma solidity ^0.5.0;\n\ncontract Donation {\n    // Model a Donation\n    struct Item {\n        uint id;\n        string name;\n        string description;\n        string donateBy;\n        string donateOn;\n        address admin;\n    }\n\n    // Store items\n    // Fetch item\n    mapping(uint => Item) public items;\n\n    // Store items Count\n    uint public itemsCount;\n\n    constructor () public {\n        addItem(\"Food\", \"Wet Food\", \"Scott\", \"Dec 24, 2020\", 0x0000000000000000000000000000000000000000);\n    }\n\n    function donate (string memory _name, string memory _description, string memory _donateBy, string memory _donateOn) public {\n        itemsCount ++;\n        items[itemsCount] = Item(itemsCount, _name, _description, _donateBy, _donateOn, msg.sender);\n    }\n\n    function addItem (string memory _name, string memory _description, string memory _donateBy, string memory _donateOn, address _admin) private {\n        itemsCount ++;\n        items[itemsCount] = Item(itemsCount, _name, _description, _donateBy, _donateOn, _admin);\n    }\n}",
  "sourcePath": "/Users/wangran/Desktop/GradLife/2020fall/APS1050/personal project/pet-shop-extension/contracts/Donation.sol",
  "compiler": {
    "name": "solc",
    "version": "0.5.16+commit.9c3226ce.Emscripten.clang"
  },
  "schemaVersion": "3.3.2",
  "updatedAt": "2020-12-28T18:09:43.164Z",
  "networkType": "ethereum",
  "devdoc": {
    "methods": {}
  },
  "userdoc": {
    "methods": {}
  }
}