{
  "contractName": "PersonalDonation",
  "abi": [
    {
      "inputs": [],
      "payable": false,
      "stateMutability": "nonpayable",
      "type": "constructor"
    },
    {
      "constant": true,
      "inputs": [
        {
          "internalType": "uint256",
          "name": "",
          "type": "uint256"
        }
      ],
      "name": "records",
      "outputs": [
        {
          "internalType": "uint256",
          "name": "id",
          "type": "uint256"
        },
        {
          "internalType": "string",
          "name": "name",
          "type": "string"
        },
        {
          "internalType": "string",
          "name": "donateBy",
          "type": "string"
        },
        {
          "internalType": "string",
          "name": "donateOn",
          "type": "string"
        },
        {
          "internalType": "address",
          "name": "donorAddr",
          "type": "address"
        }
      ],
      "payable": false,
      "stateMutability": "view",
      "type": "function"
    },
    {
      "constant": true,
      "inputs": [],
      "name": "recordsCount",
      "outputs": [
        {
          "internalType": "uint256",
          "name": "",
          "type": "uint256"
        }
      ],
      "payable": false,
      "stateMutability": "view",
      "type": "function"
    },
    {
      "constant": false,
      "inputs": [
        {
          "internalType": "string",
          "name": "_name",
          "type": "string"
        },
        {
          "internalType": "string",
          "name": "_donateBy",
          "type": "string"
        },
        {
          "internalType": "string",
          "name": "_donateOn",
          "type": "string"
        }
      ],
      "name": "addDonation",
      "outputs": [],
      "payable": false,
      "stateMutability": "nonpayable",
      "type": "function"
    }
  ],
  "bytecode": "0x608060405234801561001057600080fd5b506100c36040518060400160405280600481526020017f466f6f64000000000000000000000000000000000000000000000000000000008152506040518060400160405280600581526020017f53636f74740000000000000000000000000000000000000000000000000000008152506040518060400160405280600c81526020017f4465632032342c2032303230000000000000000000000000000000000000000081525060006100c860201b60201c565b610283565b6001600081548092919060010191905055506040518060a0016040528060015481526020018581526020018481526020018381526020018273ffffffffffffffffffffffffffffffffffffffff1681525060008060015481526020019081526020016000206000820151816000015560208201518160010190805190602001906101539291906101de565b5060408201518160020190805190602001906101709291906101de565b50606082015181600301908051906020019061018d9291906101de565b5060808201518160040160006101000a81548173ffffffffffffffffffffffffffffffffffffffff021916908373ffffffffffffffffffffffffffffffffffffffff16021790555090505050505050565b828054600181600116156101000203166002900490600052602060002090601f016020900481019282601f1061021f57805160ff191683800117855561024d565b8280016001018555821561024d579182015b8281111561024c578251825591602001919060010190610231565b5b50905061025a919061025e565b5090565b61028091905b8082111561027c576000816000905550600101610264565b5090565b90565b610819806102926000396000f3fe608060405234801561001057600080fd5b50600436106100415760003560e01c80633446106714610046578063eb3dbf83146101ff578063fd73e1231461021d575b600080fd5b6100726004803603602081101561005c57600080fd5b8101908080359060200190929190505050610406565b604051808681526020018060200180602001806020018573ffffffffffffffffffffffffffffffffffffffff1673ffffffffffffffffffffffffffffffffffffffff168152602001848103845288818151815260200191508051906020019080838360005b838110156100f25780820151818401526020810190506100d7565b50505050905090810190601f16801561011f5780820380516001836020036101000a031916815260200191505b50848103835287818151815260200191508051906020019080838360005b8381101561015857808201518184015260208101905061013d565b50505050905090810190601f1680156101855780820380516001836020036101000a031916815260200191505b50848103825286818151815260200191508051906020019080838360005b838110156101be5780820151818401526020810190506101a3565b50505050905090810190601f1680156101eb5780820380516001836020036101000a031916815260200191505b509850505050505050505060405180910390f35b610207610624565b6040518082815260200191505060405180910390f35b6104046004803603606081101561023357600080fd5b810190808035906020019064010000000081111561025057600080fd5b82018360208201111561026257600080fd5b8035906020019184600183028401116401000000008311171561028457600080fd5b91908080601f016020809104026020016040519081016040528093929190818152602001838380828437600081840152601f19601f820116905080830192505050505050509192919290803590602001906401000000008111156102e757600080fd5b8201836020820111156102f957600080fd5b8035906020019184600183028401116401000000008311171561031b57600080fd5b91908080601f016020809104026020016040519081016040528093929190818152602001838380828437600081840152601f19601f8201169050808301925050505050505091929192908035906020019064010000000081111561037e57600080fd5b82018360208201111561039057600080fd5b803590602001918460018302840111640100000000831117156103b257600080fd5b91908080601f016020809104026020016040519081016040528093929190818152602001838380828437600081840152601f19601f82011690508083019250505050505050919291929050505061062a565b005b6000602052806000526040600020600091509050806000015490806001018054600181600116156101000203166002900480601f0160208091040260200160405190810160405280929190818152602001828054600181600116156101000203166002900480156104b85780601f1061048d576101008083540402835291602001916104b8565b820191906000526020600020905b81548152906001019060200180831161049b57829003601f168201915b505050505090806002018054600181600116156101000203166002900480601f0160208091040260200160405190810160405280929190818152602001828054600181600116156101000203166002900480156105565780601f1061052b57610100808354040283529160200191610556565b820191906000526020600020905b81548152906001019060200180831161053957829003601f168201915b505050505090806003018054600181600116156101000203166002900480601f0160208091040260200160405190810160405280929190818152602001828054600181600116156101000203166002900480156105f45780601f106105c9576101008083540402835291602001916105f4565b820191906000526020600020905b8154815290600101906020018083116105d757829003601f168201915b5050505050908060040160009054906101000a900473ffffffffffffffffffffffffffffffffffffffff16905085565b60015481565b6001600081548092919060010191905055506040518060a0016040528060015481526020018481526020018381526020018281526020013373ffffffffffffffffffffffffffffffffffffffff1681525060008060015481526020019081526020016000206000820151816000015560208201518160010190805190602001906106b592919061073f565b5060408201518160020190805190602001906106d292919061073f565b5060608201518160030190805190602001906106ef92919061073f565b5060808201518160040160006101000a81548173ffffffffffffffffffffffffffffffffffffffff021916908373ffffffffffffffffffffffffffffffffffffffff160217905550905050505050565b828054600181600116156101000203166002900490600052602060002090601f016020900481019282601f1061078057805160ff19168380011785556107ae565b828001600101855582156107ae579182015b828111156107ad578251825591602001919060010190610792565b5b5090506107bb91906107bf565b5090565b6107e191905b808211156107dd5760008160009055506001016107c5565b5090565b9056fea265627a7a72315820c183fdb0b0bb2f72595271bdb6c926adde0beb06b6636fdb132fc6ccdb8991cf64736f6c63430005100032",
  "source": "pragma solidity ^0.5.0;\n\ncontract PersonalDonation {\n    // Model a personal Donation\n    struct Record {\n        uint id;\n        string name;\n        string donateBy;\n        string donateOn;\n        address donorAddr;\n    }\n\n    mapping(uint => Record) public records;\n\n    // Store records Count\n    uint public recordsCount;\n\n    constructor () public {\n        addRecord(\"Food\", \"Scott\", \"Dec 24, 2020\", 0x0000000000000000000000000000000000000000);\n    }\n\n    function addDonation (string memory _name, string memory _donateBy, string memory _donateOn) public {\n        recordsCount ++;\n        records[recordsCount] = Record(recordsCount, _name, _donateBy, _donateOn, msg.sender);\n    }\n\n    function addRecord (string memory _name, string memory _donateBy, string memory _donateOn, address _admin) private {\n        recordsCount ++;\n        records[recordsCount] = Record(recordsCount, _name, _donateBy, _donateOn, _admin);\n    }\n}",
  "sourcePath": "/Users/wangran/Desktop/GradLife/2020fall/APS1050/personal project/pet-shop-extension/contracts/PersonalDonation.sol",
  "compiler": {
    "name": "solc",
    "version": "0.5.16+commit.9c3226ce.Emscripten.clang"
  },
  "schemaVersion": "3.3.2",
  "updatedAt": "2020-12-28T18:09:43.167Z",
  "networkType": "ethereum",
  "devdoc": {
    "methods": {}
  },
  "userdoc": {
    "methods": {}
  }
}